:020000040800F2
:100000009806002029020008310200083302000887
:10001000350200083702000839020008000000001D
:100020000000000000000000000000003B0200088B
:100030003D020008000000003F02000841020008E5
:10004000430200084302000843020008430200087C
:10005000430200084302000843020008430200086C
:10006000430200084302000843020008430200085C
:10007000430200084302000843020008430200084C
:10008000430200084302000843020008430200083C
:10009000430200084302000843020008430200082C
:1000A000ED0500084302000843020008430200086F
:1000B00025060008000000000000000043020008C0
:1000C0004302000843020008430200080000000049
:1000D000430200084302000835070008C90700086A
:1000E0004302000843020008430200080000000029
:1000F0000000000000000000000000000000000000
:10010000000000000000000000000000ED040008F6
:100110000000000000000000430200080000000092
:1001200000000000000000000000000000000000CF
:1001300000000000000000000000000000000000BF
:100140004302000843020008000000000000000015
:10015000000000000000000000000000000000009F
:10016000430200084302000843020008430200085B
:100170004302000800000000000000000000000032
:10018000000000004302000800F002F800F03CF814
:100190000AA090E8000C82448344AAF10107DA45E2
:1001A00001D100F031F8AFF2090EBAE80F0013F0F8
:1001B000010F18BFFB1A43F0010318476C10000031
:1001C0008C100000103A24BF78C878C1FAD85207C2
:1001D00024BF30C830C144BF04680C6070470000C1
:1001E0000023002400250026103A28BF78C1FBD840
:1001F000520728BF30C148BF0B6070471FB500F0E1
:10020000EDFE1FBD10B510BD00F031F81146FFF72F
:10021000F5FF00F0F7FD00F04FF803B4FFF7F2FF31
:1002200003BC00F057F80000094880470948004720
:10023000FEE7FEE7FEE7FEE7FEE7FEE7FEE7FEE796
:10024000FEE7FEE704480549054A064B70470000F3
:100250007105000889010008980000209806002018
:10026000980200209802002070477047704775463A
:1002700000F02CF8AE4605006946534620F0070012
:10028000854618B020B5FFF7DDFFBDE820404FF0F0
:1002900000064FF000074FF000084FF0000B21F070
:1002A0000701AC46ACE8C009ACE8C009ACE8C0093D
:1002B000ACE8C0098D46704710B50446AFF3008026
:1002C0002046BDE81040FFF7A8BF00000048704777
:1002D0003400002001491820ABBEFEE726000200D2
:1002E000704700002D48406940F001002B494861EB
:1002F00000202B4988652B4808662B4848662B4808
:100300000068C86542F2B05088650846806D40F0CC
:100310000100886500202249803108602148001DC5
:100320001F49C1F888002248C1F88C001F480068A6
:100330001B498431086042F2B0501949C1F880006D
:100340000846D0F8800040F001001549803108606F
:100350000020134988601348083008611548486137
:1003600012480068C86042F2B05088600846806851
:1003700040F001008860002008630F4888630F4840
:10038000C8630A480068486342F2B05008630846F0
:10039000006B40F00100086370470000001002404D
:1003A00000000240342C0140E60F00080C00002041
:1003B00076100008061100080C3C00409611000859
:1003C0001548006840F48010134908601248143042
:1003D000006820F480601049143108600E480068FD
:1003E00040F480000C4908600B481430006820F489
:1003F00000600949143108600748006840F08070C7
:100400000549086004481430006820F4805002490F
:100410001431086070470000000800483148006847
:1004200040F480302F49086000BF2E48006808B9AA
:10043000012000E0002000F400300028F5D12A4817
:10044000006840F01200284908602648406840F0E3
:100450008000244948600846406848600846406873
:1004600048600846406820F47010486008464068BC
:1004700040F4001048600846406820F400304860AE
:100480000846C06A20F00F00C8620846C06AC86209
:100490000846406820F4803048600846406840F4D0
:1004A000803048600846006840F08070086000BFF7
:1004B0000C48006800F000700028F9D00948406836
:1004C00020F00300074948600846406840F00200F9
:1004D000486000BF0348406800F00C000828F9D1CC
:1004E00070470000001002400020024000B51C4888
:1004F00000681C490860098888B200F095F9C0F3CB
:100500000E031948007850BB642B15D9782B13D2F1
:100510001648006840F02000144908604FF09040F1
:10052000406940F080004FF09041486108464069C2
:1005300040F00100486112E00C48006820F0200003
:100540000A4908604FF09040406920F080004FF069
:10055000904148610846406920F00100486100BDB3
:100560000C3C00400400002010000020140800484B
:100570001948006840F4700017490860174800687F
:1005800040F00100154908600846406814490840D9
:100590001249486008460068124908400F4908603F
:1005A0000846006820F4802008600846406820F46F
:1005B000FE0048600846C06A20F00F00C862084686
:1005C000006B094908400549086300208860C8039A
:1005D000014980390860704788ED00E00010024052
:1005E0000CC07FF8FFFFF6FECCFC00FF10B50B48F7
:1005F000006920F001000949086100F01DF9084870
:10060000006840F02000064908600A21272000F019
:10061000F7F8272000F0E2F810BD0000004001408C
:10062000004800404FF08040006920F001004FF08A
:10063000804108613A480068012800D100E00020AC
:1006400038490968491E384A12681144374A126805
:10065000914201D1012100E000210840D8B3334884
:100660000068801E31490860084600684FF08041EC
:1006700088622F48006840F002002D4908602C482D
:100680002030006840F002002949203108602848E5
:10069000006840F0080026490860254820300068BE
:1006A00040F020002249203108602148006840F0D5
:1006B00020001F4908601E482030006840F4007088
:1006C0001B49203108601A481430006840F4E0509B
:1006D00017491431086013480068401E134909681F
:1006E000884208D14FF08040C06820F001004FF0F0
:1006F0008041C86013E00B480068401E0A49096841
:1007000008440A490968884209D908480068801ED7
:1007100006490860084600684FF0804188627047CB
:1007200008000020200000202400002028000020D5
:100730000008004800B5002320480388032B0CD193
:1007400000BF1E480838006800F080000028F8D07C
:1007500003201A49091D08802FE02BB900F010FC76
:1007600001201749087028E0012B05D10020144909
:10077000087000F0B9FB20E0042B03D101201049E0
:1007800008701AE0052B07D10E4800680D49086073
:1007900000200B49087010E0062B03D1002000F068
:1007A000C5FB0AE0072B03D1012000F0BFFB04E0EA
:1007B000082B02D1022000F0B9FB00BD2444004008
:1007C000100000201408004800200249088802494F
:1007D00008807047244800402838014000280DDB7D
:1007E00000BF00BF00F01F020121914042099200AA
:1007F00002F1E022C2F8001100BF00BF7047000004
:1008000010B5002804DB0A07130E054A135406E04E
:100810000A07140E034A00F00F031B1FD45410BD27
:1008200000E400E018ED00E00146084600E0484022
:100830004A10111EFBD1704700B50FA000F0F0FA6E
:1008400015A000F0EDFA1CA000F0EAFA22A000F0DA
:10085000E7FA29A000F0E4FA2FA000F0E1FA36A0B0
:1008600000F0DEFA3CA000F0DBFA43A000F0D8FA7A
:1008700049A000F0D5FA00BD24505542582C343020
:100880002C474C4C2C302C302C302C302C302C3035
:100890002A35430D0A00000024505542582C3430AC
:1008A0002C5A44412C302C302C302C302C302C3015
:1008B0002A34340D0A00000024505542582C34309C
:1008C0002C5654472C302C302C302C302C302C30E3
:1008D0002A35450D0A00000024505542582C34306A
:1008E0002C4753562C302C302C302C302C302C30C4
:1008F0002A35390D0A00000024505542582C343056
:100900002C4753412C302C302C302C302C302C30B8
:100910002A34450D0A00000024505542582C34302A
:100920002C524D432C302C302C302C302C302C3091
:100930002A34370D0A00000024505542582C343018
:100940002C474E532C302C302C302C302C302C306B
:100950002A34310D0A00000024505542582C3430FE
:100960002C4752532C302C302C302C302C302C3047
:100970002A35440D0A00000024505542582C3430CA
:100980002C4753542C302C302C302C302C302C3025
:100990002A35420D0A00000024505542582C3430AC
:1009A0002C5458542C302C302C302C302C302C30F3
:1009B0002A34330D0A00000010B5FFF72FFDFE4862
:1009C000406940F4F010FC4948610846C06940F0B5
:1009D0000100C8610846806940F402308861084619
:1009E000C06940F40040C861FFF7EAFC4FF0904056
:1009F000006840F080704FF0904108600846006841
:100A000040F4804008600846406940F0800048613A
:100A10000846006840F0010008600846006820F0C1
:100A2000020008600846406940F001004861E34860
:100A3000006840F01000E1490860E04814300068A8
:100A400040F00400DD4914310860DD48006840F0E2
:100A50001000DB490860DA481430006840F00400F8
:100A6000D74914310860D548006840F48060D34904
:100A70000860D2481430006820F02000CF491431BB
:100A800008604FF4C040CD4920310860CB48006871
:100A900020F04000C94908600846006840F0800026
:100AA0000860C6480C30006840F08000C3490C3133
:100AB0000860C2482030006840F4C020BF4920319F
:100AC0000860BE48006820F48070BC490860084691
:100AD000006840F4007008604FF09040C06840F437
:100AE00080404FF09041C8603C20B6490860081D26
:100AF000006840F00400091D08600846006840F4E2
:100B0000706008600846006840F040000860081FF8
:100B1000006840F04000091F086003213320FFF700
:100B20006FFE3320FFF75AFE41F26F70A64908604E
:100B30000120091D0860A4481C38006840F480703A
:100B4000A1491C390860A0482838006840F001001D
:100B50009D49283908609848406940F4D01096496A
:100B600048610846C06940F00100C86108468069D4
:100B700040F4423088619548006820F4E050934981
:100B800008600120924908600002091D0860914830
:100B900000888F490C3108608F480088091D086063
:100BA0008E480088091D086089480838006840F0B0
:100BB00003008749083908600846006840F03000A3
:100BC00008600846006840F44070086080481C30A7
:100BD000006840F400407E491C31086060207C4978
:100BE000103908600846006840F4C0400860602082
:100BF000091D086076482838006820F01000744904
:100C0000283908600846006820F06000086008463F
:100C1000006840F0010008606D4800684FF08041B6
:100C200088624FF42060C8624005C06A0A38486391
:100C30000846C06A0A3888630846C06A0A38C8632A
:100C40000846C06840F46060C8600F211C20FFF7B0
:100C5000D7FD1C20FFF7C2FDFFF744FB4FF080409B
:100C6000006840F001004FF0804108605248C069C0
:100C700040F400305049C8610846406940F40030F3
:100C800048614FF09040006A40F4EE404FF09041D0
:100C900008620846006840F0A000086050480068FC
:100CA00020F400404E49086041F66A004C490C317E
:100CB00008604B48006840F00C004949086008464D
:100CC000006840F0010008600846006840F020001D
:100CD000086002212620FFF793FD2620FFF77EFD06
:100CE0003548806940F480403349886137480C308A
:100CF000006840F4E02035490C310860334814386E
:100D0000006840F4007031491439086035480068C3
:100D100020F40040334908604FF4027031490C312F
:100D200008603048006840F008002E490860084616
:100D3000006840F0010008601F48C06940F480204E
:100D40001D49C8610846406940F4802048611B483D
:100D5000406A40F4EE4119484162006840F42000C6
:100D6000164908602048006820F400401E490860C9
:100D700041F66A001C490C3108601B48006840F0CD
:100D80000800194908600846006840F00100086042
:100D9000FFF752FD1448006840F004001249086053
:100DA0000846006840F0200008600A212720FFF76D
:100DB00027FD27201AE00000001002400004004830
:100DC000000C0048003C0040284401401408004842
:100DD000282C0140E60F00087610000806110008D4
:100DE000004400400038014000480040FFF7F6FC96
:100DF0004FF09040406940F480504FF0904148617E
:100E000010BD0000FFF7D8FD01200449087003E081
:100E100000F012F800F046F8FAE700001000002099
:100E200000B50246002303E0D05C00F0C9F85B1C6B
:100E3000D05C0028F8D100BD1748007858B3174897
:100E4000D0E90020521C40F100001449C1E9002003
:100E50000846134AD0E900310020D21A88411AD23C
:100E600000210E4A116051604FF09040406940F0FF
:100E700001004FF090414861002000E0401C42F228
:100E800010718842FADB4FF09040406920F0010079
:100E90004FF090414861704710000020180000207A
:100EA00010BF3A0000B50C48007898B100200B49FB
:100EB000087000F065F8002000E0401C08498842F6
:100EC000FBDB0848007800F045F800F00DF8002042
:100ED0000149087000BD00002E0000201000002015
:100EE00080C3C9012C0000204FF08040C06840F052
:100EF00001004FF08041C86008480068401E084962
:100F00000968084407490860084600684FF08041B6
:100F1000886201200449086070470000200000201A
:100F2000240000202800002008000020064909783D
:100F3000814200D1704705490870034908700121BA
:100F4000034A117000BFF5E72D0000202C0000209F
:100F50002E00002020B1012806D002280CD107E085
:100F60007821064A116007E03C21044A116003E041
:100F70002B21024A116000BF00BF704720000020F3
:100F800000200D4908600D48006820F002000B4960
:100F900008600846006820F00800086008460068FD
:100FA00020F02000086005481430006820F4E0506C
:100FB000024914310860704708000020000800480A
:100FC00000BF0549096801F080010029F9D00249F4
:100FD0000C310880704700001C4800404FF0407002
:100FE000E1EE100A704780008B009600A100AB0074
:100FF000B600BF00C900D200DA00E100E800EE0050
:10100000F300F700FB00FD00FF00FF00FF00FD0004
:10101000FB00F700F300EE00E800E100DA00D20088
:10102000C900BF00B600AB00A10096008B00800095
:1010300075006A005F0055004A00410037002E002D
:1010400026001F00180012000D0009000500030013
:101050000100010001000300050009000D0012005D
:1010600018001F0026002E00370040004A005500DF
:101070005F006A007500EE00E800E100DA00D200CF
:10108000C900C000B600AB00A10096008B00800034
:1010900075006A005F0055004A00410037002E00CD
:1010A00026001F00180012000D00090005000300B3
:1010B0000100010001000300050009000D001200FD
:1010C00018001F0026002E00370040004A0055007F
:1010D0005F006A00750080008B009600A100AB00E5
:1010E000B600BF00C900D200DA00E100E800EE005F
:1010F000F300F700FB00FD00FF00FF00FF00FD0014
:10110000FB00F700F30012000D00090005000300CA
:101110000100010001000300050009000D0012009C
:1011200018001F0026002E00370040004A0055001E
:101130005F006A00750080008B009600A100AB0084
:10114000B600BF00C900D200DA00E100E800EE00FE
:10115000F300F700FB00FD00FF00FF00FF00FD00B3
:10116000FB00F700F300EE00E800E100DA00D20037
:10117000C900BF00B600AB00A10096008B00800044
:1011800075006A005F0055004A00410037002E00DC
:1011900026001F00180012000D00090005000300C2
:1011A0000100010001000300050009000D0012000C
:1011B00018001F0026002E00370040004A0055008E
:1011C0005F006A00750080008B009600A100AB00F4
:1011D000B600BF00C900D200DA00E100E800EE006E
:1011E000F300F700FB00FD00FF00FF00FF00FD0023
:1011F000FB00F700F300EE00E800E100DA00D200A7
:10120000C900BF00B600AB00A10096008B008000B3
:1012100075006A005F0055004A00410037002E004B
:1012200026001F00180000004812000800000020DF
:1012300034000000C40100087C12000834000020C3
:1012400064060000E001000800000000000000004B
:101250000000000048000000000000000000000046
:1012600000000000000000003C00000064000000DE
:0C1270000B030000010100000000000062
:0400000508000229C4
:00000001FF
